{
  "contractName": "Crowdfunding",
  "abi": [
    {
      "anonymous": false,
      "inputs": [
        {
          "indexed": false,
          "internalType": "uint256",
          "name": "id",
          "type": "uint256"
        },
        {
          "indexed": false,
          "internalType": "address",
          "name": "creator",
          "type": "address"
        },
        {
          "indexed": false,
          "internalType": "uint256",
          "name": "goal",
          "type": "uint256"
        },
        {
          "indexed": false,
          "internalType": "uint256",
          "name": "deadline",
          "type": "uint256"
        }
      ],
      "name": "CampaignCreated",
      "type": "event"
    },
    {
      "anonymous": false,
      "inputs": [
        {
          "indexed": false,
          "internalType": "uint256",
          "name": "id",
          "type": "uint256"
        },
        {
          "indexed": false,
          "internalType": "address",
          "name": "creator",
          "type": "address"
        },
        {
          "indexed": false,
          "internalType": "uint256",
          "name": "amount",
          "type": "uint256"
        }
      ],
      "name": "Claimed",
      "type": "event"
    },
    {
      "anonymous": false,
      "inputs": [
        {
          "indexed": true,
          "internalType": "uint256",
          "name": "id",
          "type": "uint256"
        },
        {
          "indexed": true,
          "internalType": "address",
          "name": "user",
          "type": "address"
        },
        {
          "indexed": false,
          "internalType": "uint256",
          "name": "amount",
          "type": "uint256"
        }
      ],
      "name": "Pledged",
      "type": "event"
    },
    {
      "anonymous": false,
      "inputs": [
        {
          "indexed": true,
          "internalType": "uint256",
          "name": "id",
          "type": "uint256"
        },
        {
          "indexed": true,
          "internalType": "address",
          "name": "user",
          "type": "address"
        },
        {
          "indexed": false,
          "internalType": "uint256",
          "name": "amount",
          "type": "uint256"
        }
      ],
      "name": "Refunded",
      "type": "event"
    },
    {
      "anonymous": false,
      "inputs": [
        {
          "indexed": true,
          "internalType": "uint256",
          "name": "id",
          "type": "uint256"
        },
        {
          "indexed": true,
          "internalType": "address",
          "name": "user",
          "type": "address"
        },
        {
          "indexed": false,
          "internalType": "uint256",
          "name": "amount",
          "type": "uint256"
        }
      ],
      "name": "Unpledged",
      "type": "event"
    },
    {
      "inputs": [],
      "name": "campaignCount",
      "outputs": [
        {
          "internalType": "uint256",
          "name": "",
          "type": "uint256"
        }
      ],
      "stateMutability": "view",
      "type": "function",
      "constant": true
    },
    {
      "inputs": [
        {
          "internalType": "uint256",
          "name": "",
          "type": "uint256"
        }
      ],
      "name": "campaigns",
      "outputs": [
        {
          "internalType": "address payable",
          "name": "creator",
          "type": "address"
        },
        {
          "internalType": "uint256",
          "name": "goal",
          "type": "uint256"
        },
        {
          "internalType": "uint256",
          "name": "pledged",
          "type": "uint256"
        },
        {
          "internalType": "uint256",
          "name": "deadline",
          "type": "uint256"
        },
        {
          "internalType": "bool",
          "name": "claimed",
          "type": "bool"
        }
      ],
      "stateMutability": "view",
      "type": "function",
      "constant": true
    },
    {
      "inputs": [
        {
          "internalType": "uint256",
          "name": "",
          "type": "uint256"
        },
        {
          "internalType": "address",
          "name": "",
          "type": "address"
        }
      ],
      "name": "pledges",
      "outputs": [
        {
          "internalType": "uint256",
          "name": "",
          "type": "uint256"
        }
      ],
      "stateMutability": "view",
      "type": "function",
      "constant": true
    },
    {
      "inputs": [
        {
          "internalType": "uint256",
          "name": "_goal",
          "type": "uint256"
        },
        {
          "internalType": "uint256",
          "name": "_duration",
          "type": "uint256"
        }
      ],
      "name": "createCampaign",
      "outputs": [],
      "stateMutability": "nonpayable",
      "type": "function"
    },
    {
      "inputs": [
        {
          "internalType": "uint256",
          "name": "_id",
          "type": "uint256"
        }
      ],
      "name": "pledge",
      "outputs": [],
      "stateMutability": "payable",
      "type": "function",
      "payable": true
    },
    {
      "inputs": [
        {
          "internalType": "uint256",
          "name": "_id",
          "type": "uint256"
        },
        {
          "internalType": "uint256",
          "name": "_amount",
          "type": "uint256"
        }
      ],
      "name": "unpledge",
      "outputs": [],
      "stateMutability": "nonpayable",
      "type": "function"
    },
    {
      "inputs": [
        {
          "internalType": "uint256",
          "name": "_id",
          "type": "uint256"
        }
      ],
      "name": "claimFunds",
      "outputs": [],
      "stateMutability": "nonpayable",
      "type": "function"
    },
    {
      "inputs": [
        {
          "internalType": "uint256",
          "name": "_id",
          "type": "uint256"
        }
      ],
      "name": "refund",
      "outputs": [],
      "stateMutability": "nonpayable",
      "type": "function"
    }
  ],
  "bytecode": "0x608060405234801561001057600080fd5b506114d0806100206000396000f3fe60806040526004361061007b5760003560e01c8063711853ab1161004e578063711853ab1461013c5780637274e30d146101655780637326c9c0146101905780638e97f524146101ac5761007b565b8063141961bc146100805780631b55e338146100c157806322502268146100ea578063278ecde114610113575b600080fd5b34801561008c57600080fd5b506100a760048036038101906100a29190610c91565b6101e9565b6040516100b8959493929190610d29565b60405180910390f35b3480156100cd57600080fd5b506100e860048036038101906100e39190610c91565b61024c565b005b3480156100f657600080fd5b50610111600480360381019061010c9190610d7c565b6104a7565b005b34801561011f57600080fd5b5061013a60048036038101906101359190610c91565b61067b565b005b34801561014857600080fd5b50610163600480360381019061015e9190610d7c565b6108ab565b005b34801561017157600080fd5b5061017a610ab7565b6040516101879190610dbc565b60405180910390f35b6101aa60048036038101906101a59190610c91565b610abd565b005b3480156101b857600080fd5b506101d360048036038101906101ce9190610e15565b610c31565b6040516101e09190610dbc565b60405180910390f35b60006020528060005260406000206000915090508060000160009054906101000a900473ffffffffffffffffffffffffffffffffffffffff16908060010154908060020154908060030154908060040160009054906101000a900460ff16905085565b6000806000838152602001908152602001600020905080600301544210156102a9576040517f08c379a00000000000000000000000000000000000000000000000000000000081526004016102a090610eb2565b60405180910390fd5b8060010154816002015410156102f4576040517f08c379a00000000000000000000000000000000000000000000000000000000081526004016102eb90610f1e565b60405180910390fd5b8060040160009054906101000a900460ff1615610346576040517f08c379a000000000000000000000000000000000000000000000000000000000815260040161033d90610f8a565b60405180910390fd5b3373ffffffffffffffffffffffffffffffffffffffff168160000160009054906101000a900473ffffffffffffffffffffffffffffffffffffffff1673ffffffffffffffffffffffffffffffffffffffff16146103d8576040517f08c379a00000000000000000000000000000000000000000000000000000000081526004016103cf90610ff6565b60405180910390fd5b60018160040160006101000a81548160ff0219169083151502179055508060000160009054906101000a900473ffffffffffffffffffffffffffffffffffffffff1673ffffffffffffffffffffffffffffffffffffffff166108fc82600201549081150290604051600060405180830381858888f19350505050158015610463573d6000803e3d6000fd5b507f4ec90e965519d92681267467f775ada5bd214aa92c0dc93d90a5e880ce9ed0268233836002015460405161049b93929190611025565b60405180910390a15050565b600082116104ea576040517f08c379a00000000000000000000000000000000000000000000000000000000081526004016104e1906110a8565b60405180910390fd5b6000811161052d576040517f08c379a000000000000000000000000000000000000000000000000000000000815260040161052490611114565b60405180910390fd5b6002600081548092919061054090611163565b91905055506040518060a001604052803373ffffffffffffffffffffffffffffffffffffffff16815260200183815260200160008152602001824261058591906111ab565b815260200160001515815250600080600254815260200190815260200160002060008201518160000160006101000a81548173ffffffffffffffffffffffffffffffffffffffff021916908373ffffffffffffffffffffffffffffffffffffffff16021790555060208201518160010155604082015181600201556060820151816003015560808201518160040160006101000a81548160ff0219169083151502179055509050507f91b289a829e71d811b8c69e4a24ba2d40d115d8a236e9a724cb3bb2d43cf72236002543384844261065f91906111ab565b60405161066f94939291906111df565b60405180910390a15050565b6000806000838152602001908152602001600020905080600301544210156106d8576040517f08c379a00000000000000000000000000000000000000000000000000000000081526004016106cf90610eb2565b60405180910390fd5b8060010154816002015410610722576040517f08c379a000000000000000000000000000000000000000000000000000000000815260040161071990611270565b60405180910390fd5b60006001600084815260200190815260200160002060003373ffffffffffffffffffffffffffffffffffffffff1673ffffffffffffffffffffffffffffffffffffffff168152602001908152602001600020549050600081116107ba576040517f08c379a00000000000000000000000000000000000000000000000000000000081526004016107b1906112dc565b60405180910390fd5b60006001600085815260200190815260200160002060003373ffffffffffffffffffffffffffffffffffffffff1673ffffffffffffffffffffffffffffffffffffffff168152602001908152602001600020819055503373ffffffffffffffffffffffffffffffffffffffff166108fc829081150290604051600060405180830381858888f19350505050158015610856573d6000803e3d6000fd5b503373ffffffffffffffffffffffffffffffffffffffff16837f7ca5472b7ea78c2c0141c5a12ee6d170cf4ce8ed06be3d22c8252ddfc7a6a2c48360405161089e9190610dbc565b60405180910390a3505050565b6000806000848152602001908152602001600020905080600301544210610907576040517f08c379a00000000000000000000000000000000000000000000000000000000081526004016108fe90611348565b60405180910390fd5b816001600085815260200190815260200160002060003373ffffffffffffffffffffffffffffffffffffffff1673ffffffffffffffffffffffffffffffffffffffff16815260200190815260200160002054101561099a576040517f08c379a0000000000000000000000000000000000000000000000000000000008152600401610991906113b4565b60405180910390fd5b818160020160008282546109ae91906113d4565b92505081905550816001600085815260200190815260200160002060003373ffffffffffffffffffffffffffffffffffffffff1673ffffffffffffffffffffffffffffffffffffffff1681526020019081526020016000206000828254610a1591906113d4565b925050819055503373ffffffffffffffffffffffffffffffffffffffff166108fc839081150290604051600060405180830381858888f19350505050158015610a62573d6000803e3d6000fd5b503373ffffffffffffffffffffffffffffffffffffffff16837ffcd29b1632c6748a9a4bb9b4cd5c6486c3c84a8550dce2368f83fef3969d968584604051610aaa9190610dbc565b60405180910390a3505050565b60025481565b6000806000838152602001908152602001600020905080600301544210610b19576040517f08c379a0000000000000000000000000000000000000000000000000000000008152600401610b1090611348565b60405180910390fd5b60003411610b5c576040517f08c379a0000000000000000000000000000000000000000000000000000000008152600401610b539061147a565b60405180910390fd5b34816002016000828254610b7091906111ab565b92505081905550346001600084815260200190815260200160002060003373ffffffffffffffffffffffffffffffffffffffff1673ffffffffffffffffffffffffffffffffffffffff1681526020019081526020016000206000828254610bd791906111ab565b925050819055503373ffffffffffffffffffffffffffffffffffffffff16827f2757ac6a40883f4491cc56930ae964df9034e343e660d5179eb01e198336756b34604051610c259190610dbc565b60405180910390a35050565b6001602052816000526040600020602052806000526040600020600091509150505481565b600080fd5b6000819050919050565b610c6e81610c5b565b8114610c7957600080fd5b50565b600081359050610c8b81610c65565b92915050565b600060208284031215610ca757610ca6610c56565b5b6000610cb584828501610c7c565b91505092915050565b600073ffffffffffffffffffffffffffffffffffffffff82169050919050565b6000610ce982610cbe565b9050919050565b610cf981610cde565b82525050565b610d0881610c5b565b82525050565b60008115159050919050565b610d2381610d0e565b82525050565b600060a082019050610d3e6000830188610cf0565b610d4b6020830187610cff565b610d586040830186610cff565b610d656060830185610cff565b610d726080830184610d1a565b9695505050505050565b60008060408385031215610d9357610d92610c56565b5b6000610da185828601610c7c565b9250506020610db285828601610c7c565b9150509250929050565b6000602082019050610dd16000830184610cff565b92915050565b6000610de282610cbe565b9050919050565b610df281610dd7565b8114610dfd57600080fd5b50565b600081359050610e0f81610de9565b92915050565b60008060408385031215610e2c57610e2b610c56565b5b6000610e3a85828601610c7c565b9250506020610e4b85828601610e00565b9150509250929050565b600082825260208201905092915050565b7f43616d706169676e206973206e6f74206f766572207965740000000000000000600082015250565b6000610e9c601883610e55565b9150610ea782610e66565b602082019050919050565b60006020820190508181036000830152610ecb81610e8f565b9050919050565b7f476f616c206e6f74207265616368656400000000000000000000000000000000600082015250565b6000610f08601083610e55565b9150610f1382610ed2565b602082019050919050565b60006020820190508181036000830152610f3781610efb565b9050919050565b7f46756e647320616c726561647920636c61696d65640000000000000000000000600082015250565b6000610f74601583610e55565b9150610f7f82610f3e565b602082019050919050565b60006020820190508181036000830152610fa381610f67565b9050919050565b7f4f6e6c792063726561746f722063616e20636c61696d2066756e647300000000600082015250565b6000610fe0601c83610e55565b9150610feb82610faa565b602082019050919050565b6000602082019050818103600083015261100f81610fd3565b9050919050565b61101f81610dd7565b82525050565b600060608201905061103a6000830186610cff565b6110476020830185611016565b6110546040830184610cff565b949350505050565b7f476f616c206d7573742062652067726561746572207468616e20300000000000600082015250565b6000611092601b83610e55565b915061109d8261105c565b602082019050919050565b600060208201905081810360008301526110c181611085565b9050919050565b7f4475726174696f6e206d7573742062652067726561746572207468616e203000600082015250565b60006110fe601f83610e55565b9150611109826110c8565b602082019050919050565b6000602082019050818103600083015261112d816110f1565b9050919050565b7f4e487b7100000000000000000000000000000000000000000000000000000000600052601160045260246000fd5b600061116e82610c5b565b91507fffffffffffffffffffffffffffffffffffffffffffffffffffffffffffffffff82036111a05761119f611134565b5b600182019050919050565b60006111b682610c5b565b91506111c183610c5b565b92508282019050808211156111d9576111d8611134565b5b92915050565b60006080820190506111f46000830187610cff565b6112016020830186611016565b61120e6040830185610cff565b61121b6060830184610cff565b95945050505050565b7f476f616c20726561636865642c2063616e6e6f7420726566756e640000000000600082015250565b600061125a601b83610e55565b915061126582611224565b602082019050919050565b600060208201905081810360008301526112898161124d565b9050919050565b7f4e6f2066756e647320746f20726566756e640000000000000000000000000000600082015250565b60006112c6601283610e55565b91506112d182611290565b602082019050919050565b600060208201905081810360008301526112f5816112b9565b9050919050565b7f43616d706169676e206973206f76657200000000000000000000000000000000600082015250565b6000611332601083610e55565b915061133d826112fc565b602082019050919050565b6000602082019050818103600083015261136181611325565b9050919050565b7f496e73756666696369656e7420706c6564676520616d6f756e74000000000000600082015250565b600061139e601a83610e55565b91506113a982611368565b602082019050919050565b600060208201905081810360008301526113cd81611391565b9050919050565b60006113df82610c5b565b91506113ea83610c5b565b925082820390508181111561140257611401611134565b5b92915050565b7f506c6564676520616d6f756e74206d757374206265206772656174657220746860008201527f616e203000000000000000000000000000000000000000000000000000000000602082015250565b6000611464602483610e55565b915061146f82611408565b604082019050919050565b6000602082019050818103600083015261149381611457565b905091905056fea264697066735822122067558cead8047c946cba9f0b470305deb0e62e7d983ad3c444931c54ff3891d864736f6c63430008150033",
  "immutableReferences": {},
  "source": "// SPDX-License-Identifier: MIT\npragma solidity ^0.8.0;\n\ncontract Crowdfunding {\n    struct Campaign {\n        address payable creator;\n        uint256 goal;\n        uint256 pledged;\n        uint256 deadline;\n        bool claimed;\n    }\n\n    mapping(uint256 => Campaign) public campaigns;\n    mapping(uint256 => mapping(address => uint256)) public pledges;\n    uint256 public campaignCount;\n\n    event CampaignCreated(uint256 id, address creator, uint256 goal, uint256 deadline);\n    event Pledged(uint256 indexed id, address indexed user, uint256 amount);\n    event Unpledged(uint256 indexed id, address indexed user, uint256 amount);\n    event Claimed(uint256 id, address creator, uint256 amount);\n    event Refunded(uint256 indexed id, address indexed user, uint256 amount);\n\n    function createCampaign(uint256 _goal, uint256 _duration) external {\n        require(_goal > 0, \"Goal must be greater than 0\");\n        require(_duration > 0, \"Duration must be greater than 0\");\n\n        campaignCount++;\n        campaigns[campaignCount] = Campaign({\n            creator: payable(msg.sender),\n            goal: _goal,\n            pledged: 0,\n            deadline: block.timestamp + _duration,\n            claimed: false\n        });\n\n        emit CampaignCreated(campaignCount, msg.sender, _goal, block.timestamp + _duration);\n    }\n\n    function pledge(uint256 _id) external payable {\n        Campaign storage campaign = campaigns[_id];\n        require(block.timestamp < campaign.deadline, \"Campaign is over\");\n        require(msg.value > 0, \"Pledge amount must be greater than 0\");\n\n        campaign.pledged += msg.value;\n        pledges[_id][msg.sender] += msg.value;\n\n        emit Pledged(_id, msg.sender, msg.value);\n    }\n\n    function unpledge(uint256 _id, uint256 _amount) external {\n        Campaign storage campaign = campaigns[_id];\n        require(block.timestamp < campaign.deadline, \"Campaign is over\");\n        require(pledges[_id][msg.sender] >= _amount, \"Insufficient pledge amount\");\n\n        campaign.pledged -= _amount;\n        pledges[_id][msg.sender] -= _amount;\n        payable(msg.sender).transfer(_amount);\n\n        emit Unpledged(_id, msg.sender, _amount);\n    }\n\n    function claimFunds(uint256 _id) external {\n        Campaign storage campaign = campaigns[_id];\n        require(block.timestamp >= campaign.deadline, \"Campaign is not over yet\");\n        require(campaign.pledged >= campaign.goal, \"Goal not reached\");\n        require(!campaign.claimed, \"Funds already claimed\");\n        require(campaign.creator == msg.sender, \"Only creator can claim funds\");\n\n        campaign.claimed = true;\n        campaign.creator.transfer(campaign.pledged);\n\n        emit Claimed(_id, msg.sender, campaign.pledged);\n    }\n\n    function refund(uint256 _id) external {\n        Campaign storage campaign = campaigns[_id];\n        require(block.timestamp >= campaign.deadline, \"Campaign is not over yet\");\n        require(campaign.pledged < campaign.goal, \"Goal reached, cannot refund\");\n\n        uint256 pledgedAmount = pledges[_id][msg.sender];\n        require(pledgedAmount > 0, \"No funds to refund\");\n\n        pledges[_id][msg.sender] = 0;\n        payable(msg.sender).transfer(pledgedAmount);\n\n        emit Refunded(_id, msg.sender, pledgedAmount);\n    }\n}\n",
  "sourcePath": "/home/nana/WebstormProjects/craudfound/contracts/Crowdfunding.sol",
  "compiler": {
    "name": "solc",
    "version": "0.8.21+commit.d9974bed.Emscripten.clang"
  },
  "schemaVersion": "3.4.16",
  "updatedAt": "2024-06-03T12:48:25.245Z",
  "networkType": "ethereum",
  "devdoc": {
    "kind": "dev",
    "methods": {},
    "version": 1
  },
  "userdoc": {
    "kind": "user",
    "methods": {},
    "version": 1
  }
}